{
  "_format": "hh-sol-artifact-1",
  "contractName": "SinglePlayerQuiz",
  "sourceName": "contracts/SinglePlayerQuiz.sol",
  "abi": [
    {
      "inputs": [
        {
          "internalType": "address",
          "name": "_cUSD",
          "type": "address"
        }
      ],
      "stateMutability": "nonpayable",
      "type": "constructor"
    },
    {
      "anonymous": false,
      "inputs": [
        {
          "indexed": true,
          "internalType": "address",
          "name": "user",
          "type": "address"
        },
        {
          "indexed": false,
          "internalType": "uint256",
          "name": "amount",
          "type": "uint256"
        },
        {
          "indexed": false,
          "internalType": "uint256",
          "name": "newCredits",
          "type": "uint256"
        }
      ],
      "name": "EntryFeePaid",
      "type": "event"
    },
    {
      "anonymous": false,
      "inputs": [
        {
          "indexed": false,
          "internalType": "uint256",
          "name": "oldFee",
          "type": "uint256"
        },
        {
          "indexed": false,
          "internalType": "uint256",
          "name": "newFee",
          "type": "uint256"
        }
      ],
      "name": "EntryFeeUpdated",
      "type": "event"
    },
    {
      "anonymous": false,
      "inputs": [
        {
          "indexed": true,
          "internalType": "address",
          "name": "user",
          "type": "address"
        },
        {
          "indexed": false,
          "internalType": "bool",
          "name": "won",
          "type": "bool"
        },
        {
          "indexed": false,
          "internalType": "uint256",
          "name": "payout",
          "type": "uint256"
        },
        {
          "indexed": false,
          "internalType": "uint256",
          "name": "houseFee",
          "type": "uint256"
        }
      ],
      "name": "GameSettled",
      "type": "event"
    },
    {
      "anonymous": false,
      "inputs": [
        {
          "indexed": false,
          "internalType": "uint256",
          "name": "oldPercent",
          "type": "uint256"
        },
        {
          "indexed": false,
          "internalType": "uint256",
          "name": "newPercent",
          "type": "uint256"
        }
      ],
      "name": "HouseFeePercentUpdated",
      "type": "event"
    },
    {
      "anonymous": false,
      "inputs": [
        {
          "indexed": true,
          "internalType": "address",
          "name": "house",
          "type": "address"
        },
        {
          "indexed": false,
          "internalType": "uint256",
          "name": "amount",
          "type": "uint256"
        }
      ],
      "name": "HouseFunded",
      "type": "event"
    },
    {
      "anonymous": false,
      "inputs": [
        {
          "indexed": true,
          "internalType": "address",
          "name": "previousOwner",
          "type": "address"
        },
        {
          "indexed": true,
          "internalType": "address",
          "name": "newOwner",
          "type": "address"
        }
      ],
      "name": "OwnershipTransferred",
      "type": "event"
    },
    {
      "inputs": [],
      "name": "cUSD",
      "outputs": [
        {
          "internalType": "contract IERC20",
          "name": "",
          "type": "address"
        }
      ],
      "stateMutability": "view",
      "type": "function"
    },
    {
      "inputs": [
        {
          "internalType": "address",
          "name": "",
          "type": "address"
        }
      ],
      "name": "credits",
      "outputs": [
        {
          "internalType": "uint256",
          "name": "",
          "type": "uint256"
        }
      ],
      "stateMutability": "view",
      "type": "function"
    },
    {
      "inputs": [],
      "name": "entryFee",
      "outputs": [
        {
          "internalType": "uint256",
          "name": "",
          "type": "uint256"
        }
      ],
      "stateMutability": "view",
      "type": "function"
    },
    {
      "inputs": [
        {
          "internalType": "uint256",
          "name": "amount",
          "type": "uint256"
        }
      ],
      "name": "fundHouse",
      "outputs": [],
      "stateMutability": "nonpayable",
      "type": "function"
    },
    {
      "inputs": [],
      "name": "houseFeePercent",
      "outputs": [
        {
          "internalType": "uint256",
          "name": "",
          "type": "uint256"
        }
      ],
      "stateMutability": "view",
      "type": "function"
    },
    {
      "inputs": [],
      "name": "owner",
      "outputs": [
        {
          "internalType": "address",
          "name": "",
          "type": "address"
        }
      ],
      "stateMutability": "view",
      "type": "function"
    },
    {
      "inputs": [],
      "name": "payEntryFee",
      "outputs": [],
      "stateMutability": "nonpayable",
      "type": "function"
    },
    {
      "inputs": [
        {
          "internalType": "uint256",
          "name": "newFee",
          "type": "uint256"
        }
      ],
      "name": "setEntryFee",
      "outputs": [],
      "stateMutability": "nonpayable",
      "type": "function"
    },
    {
      "inputs": [
        {
          "internalType": "uint256",
          "name": "percent",
          "type": "uint256"
        }
      ],
      "name": "setHouseFeePercent",
      "outputs": [],
      "stateMutability": "nonpayable",
      "type": "function"
    },
    {
      "inputs": [
        {
          "internalType": "address",
          "name": "user",
          "type": "address"
        },
        {
          "internalType": "bool",
          "name": "won",
          "type": "bool"
        }
      ],
      "name": "settleGame",
      "outputs": [],
      "stateMutability": "nonpayable",
      "type": "function"
    },
    {
      "inputs": [],
      "name": "totalFunds",
      "outputs": [
        {
          "internalType": "uint256",
          "name": "",
          "type": "uint256"
        }
      ],
      "stateMutability": "view",
      "type": "function"
    },
    {
      "inputs": [
        {
          "internalType": "address",
          "name": "newOwner",
          "type": "address"
        }
      ],
      "name": "transferOwnership",
      "outputs": [],
      "stateMutability": "nonpayable",
      "type": "function"
    }
  ],
  "bytecode": "0x60a06040526509184e72a000600255600a60035534801561001f57600080fd5b50604051610fff380380610fff83398101604081905261003e916100e1565b60016000556001600160a01b03811661008e5760405162461bcd60e51b815260206004820152600e60248201526d31aaa9a2103d32b9379030b2323960911b604482015260640160405180910390fd5b6001600160a01b038116608052600180546001600160a01b031916339081179091556040516000907f8be0079c531659141344cd1fd0a4f28419497f9722a3daafe3b4186f6b6457e0908290a350610111565b6000602082840312156100f357600080fd5b81516001600160a01b038116811461010a57600080fd5b9392505050565b608051610ea361015c6000396000818160da0152818161039c01528181610486015281816104c401528181610503015281816105e30152818161070501526107870152610ea36000f3fe608060405234801561001057600080fd5b50600436106100b45760003560e01c80638746cf98116100715780638746cf981461014d5780638da5cb5b14610160578063968ed60014610173578063eb770d0c1461017b578063f2fde38b1461018e578063fe5ff468146101a157600080fd5b8063072ea61c146100b95780631fccf672146100d557806334769783146101145780633e27fee2146101295780635b62d281146101325780637037ec6f14610145575b600080fd5b6100c260025481565b6040519081526020015b60405180910390f35b6100fc7f000000000000000000000000000000000000000000000000000000000000000081565b6040516001600160a01b0390911681526020016100cc565b610127610122366004610c8a565b6101c1565b005b6100c260035481565b610127610140366004610ccd565b610279565b61012761058b565b61012761015b366004610c8a565b61068b565b6001546100fc906001600160a01b031681565b6100c261076f565b610127610189366004610c8a565b6107ff565b61012761019c366004610d04565b610867565b6100c26101af366004610d04565b60046020526000908152604090205481565b6001546001600160a01b031633146101f45760405162461bcd60e51b81526004016101eb90610d26565b60405180910390fd5b60648111156102335760405162461bcd60e51b815260206004820152600b60248201526a070657263656e743e3130360ac1b60448201526064016101eb565b600380549082905560408051828152602081018490527f2765409e0540bd4f0a776d5942701368df7438422b7823343c6d13e0948e9b6191015b60405180910390a15050565b6001546001600160a01b031633146102a35760405162461bcd60e51b81526004016101eb90610d26565b6102ab610926565b6001600160a01b0382166102ea5760405162461bcd60e51b81526020600482015260066024820152650757365723d360d41b60448201526064016101eb565b6001600160a01b03821660009081526004602052604090205461033b5760405162461bcd60e51b8152602060048201526009602482015268139bc818dc99591a5d60ba1b60448201526064016101eb565b6001600160a01b0382166000908152600460205260408120805460019290610364908490610d5f565b90915550506002805460009161037a9190610d78565b6040516370a0823160e01b815230600482015290915081906001600160a01b037f000000000000000000000000000000000000000000000000000000000000000016906370a0823190602401602060405180830381865afa1580156103e3573d6000803e3d6000fd5b505050506040513d601f19601f820116820180604052508101906104079190610d8f565b10156104485760405162461bcd60e51b815260206004820152601060248201526f125b9cdd59999a58da595b9d081c1bdd60821b60448201526064016101eb565b60008083156104f2576064600354846104619190610d78565b61046b9190610da8565b91506104778284610d5f565b90506104ad6001600160a01b037f000000000000000000000000000000000000000000000000000000000000000016868361097f565b81156104ed576001546104ed906001600160a01b037f0000000000000000000000000000000000000000000000000000000000000000811691168461097f565b61052c565b60015461052c906001600160a01b037f0000000000000000000000000000000000000000000000000000000000000000811691168561097f565b604080518515158152602081018390529081018390526001600160a01b038616907fb281b7aced3223c42bdca937c88460ed3b27ec0973c1ed6300a2b49cd05d361e9060600160405180910390a25050506105876001600055565b5050565b610593610926565b6000600254116105d25760405162461bcd60e51b815260206004820152600a6024820152690656e7472794665653d360b41b60448201526064016101eb565b60025461060d906001600160a01b037f00000000000000000000000000000000000000000000000000000000000000001690339030906109e7565b33600090815260046020526040812080546001929061062d908490610dca565b9091555050600254336000818152600460209081526040918290205482519485529084015290917f68fe355a18e39c9fccacdd46307b0e243ec0f7f1b13756ed82ce51466ae74d9e910160405180910390a26106896001600055565b565b6001546001600160a01b031633146106b55760405162461bcd60e51b81526004016101eb90610d26565b6106bd610926565b600081116106f85760405162461bcd60e51b81526020600482015260086024820152670616d6f756e743d360c41b60448201526064016101eb565b61072d6001600160a01b037f0000000000000000000000000000000000000000000000000000000000000000163330846109e7565b60405181815233907f68b5652e3b29601ecd57e94e383b10ba5e2f2726963da06839bb31da7e5dd0d99060200160405180910390a261076c6001600055565b50565b6040516370a0823160e01b81523060048201526000907f00000000000000000000000000000000000000000000000000000000000000006001600160a01b0316906370a0823190602401602060405180830381865afa1580156107d6573d6000803e3d6000fd5b505050506040513d601f19601f820116820180604052508101906107fa9190610d8f565b905090565b6001546001600160a01b031633146108295760405162461bcd60e51b81526004016101eb90610d26565b600280549082905560408051828152602081018490527f6a75d918a59da9597a749b7c707f23cfa76552074b43c68a24a21db1c45841f1910161026d565b6001546001600160a01b031633146108915760405162461bcd60e51b81526004016101eb90610d26565b6001600160a01b0381166108d45760405162461bcd60e51b815260206004820152600a60248201526906e65774f776e65723d360b41b60448201526064016101eb565b600180546001600160a01b038381166001600160a01b0319831681179093556040519116919082907f8be0079c531659141344cd1fd0a4f28419497f9722a3daafe3b4186f6b6457e090600090a35050565b6002600054036109785760405162461bcd60e51b815260206004820152601f60248201527f5265656e7472616e637947756172643a207265656e7472616e742063616c6c0060448201526064016101eb565b6002600055565b6040516001600160a01b0383166024820152604481018290526109e290849063a9059cbb60e01b906064015b60408051601f198184030181529190526020810180516001600160e01b03166001600160e01b031990931692909217909152610a25565b505050565b6040516001600160a01b0380851660248301528316604482015260648101829052610a1f9085906323b872dd60e01b906084016109ab565b50505050565b6000610a7a826040518060400160405280602081526020017f5361666545524332303a206c6f772d6c6576656c2063616c6c206661696c6564815250856001600160a01b0316610afa9092919063ffffffff16565b9050805160001480610a9b575080806020019051810190610a9b9190610ddd565b6109e25760405162461bcd60e51b815260206004820152602a60248201527f5361666545524332303a204552433230206f7065726174696f6e20646964206e6044820152691bdd081cdd58d8d9595960b21b60648201526084016101eb565b6060610b098484600085610b11565b949350505050565b606082471015610b725760405162461bcd60e51b815260206004820152602660248201527f416464726573733a20696e73756666696369656e742062616c616e636520666f6044820152651c8818d85b1b60d21b60648201526084016101eb565b600080866001600160a01b03168587604051610b8e9190610e1e565b60006040518083038185875af1925050503d8060008114610bcb576040519150601f19603f3d011682016040523d82523d6000602084013e610bd0565b606091505b5091509150610be187838387610bec565b979650505050505050565b60608315610c5b578251600003610c54576001600160a01b0385163b610c545760405162461bcd60e51b815260206004820152601d60248201527f416464726573733a2063616c6c20746f206e6f6e2d636f6e747261637400000060448201526064016101eb565b5081610b09565b610b098383815115610c705781518083602001fd5b8060405162461bcd60e51b81526004016101eb9190610e3a565b600060208284031215610c9c57600080fd5b5035919050565b80356001600160a01b0381168114610cba57600080fd5b919050565b801515811461076c57600080fd5b60008060408385031215610ce057600080fd5b610ce983610ca3565b91506020830135610cf981610cbf565b809150509250929050565b600060208284031215610d1657600080fd5b610d1f82610ca3565b9392505050565b6020808252600990820152682737ba1037bbb732b960b91b604082015260600190565b634e487b7160e01b600052601160045260246000fd5b81810381811115610d7257610d72610d49565b92915050565b8082028115828204841417610d7257610d72610d49565b600060208284031215610da157600080fd5b5051919050565b600082610dc557634e487b7160e01b600052601260045260246000fd5b500490565b80820180821115610d7257610d72610d49565b600060208284031215610def57600080fd5b8151610d1f81610cbf565b60005b83811015610e15578181015183820152602001610dfd565b50506000910152565b60008251610e30818460208701610dfa565b9190910192915050565b6020815260008251806020840152610e59816040850160208701610dfa565b601f01601f1916919091016040019291505056fea2646970667358221220cefd21334adda3f441246ec0239b1fbaaeefbb6a93ca125f14fbb9c53190879664736f6c63430008180033",
  "linkReferences": {},
  "deployedLinkReferences": {}
}