{
  "_format": "hh-sol-artifact-1",
  "contractName": "TournamentQuizV2",
  "sourceName": "contracts/TournamentQuizV2.sol",
  "abi": [
    {
      "inputs": [
        {
          "internalType": "address",
          "name": "_cUSD",
          "type": "address"
        }
      ],
      "stateMutability": "nonpayable",
      "type": "constructor"
    },
    {
      "anonymous": false,
      "inputs": [
        {
          "indexed": true,
          "internalType": "address",
          "name": "previousOwner",
          "type": "address"
        },
        {
          "indexed": true,
          "internalType": "address",
          "name": "newOwner",
          "type": "address"
        }
      ],
      "name": "OwnershipTransferred",
      "type": "event"
    },
    {
      "anonymous": false,
      "inputs": [
        {
          "indexed": true,
          "internalType": "uint256",
          "name": "id",
          "type": "uint256"
        },
        {
          "indexed": true,
          "internalType": "address",
          "name": "player",
          "type": "address"
        },
        {
          "indexed": false,
          "internalType": "uint256",
          "name": "passes",
          "type": "uint256"
        },
        {
          "indexed": false,
          "internalType": "uint256",
          "name": "cost",
          "type": "uint256"
        }
      ],
      "name": "PassesPurchased",
      "type": "event"
    },
    {
      "anonymous": false,
      "inputs": [
        {
          "indexed": false,
          "internalType": "address",
          "name": "account",
          "type": "address"
        }
      ],
      "name": "Paused",
      "type": "event"
    },
    {
      "anonymous": false,
      "inputs": [
        {
          "indexed": true,
          "internalType": "uint256",
          "name": "id",
          "type": "uint256"
        },
        {
          "indexed": true,
          "internalType": "address",
          "name": "player",
          "type": "address"
        },
        {
          "indexed": false,
          "internalType": "uint256",
          "name": "amount",
          "type": "uint256"
        }
      ],
      "name": "Refunded",
      "type": "event"
    },
    {
      "anonymous": false,
      "inputs": [
        {
          "indexed": true,
          "internalType": "uint256",
          "name": "id",
          "type": "uint256"
        },
        {
          "indexed": true,
          "internalType": "address",
          "name": "player",
          "type": "address"
        },
        {
          "indexed": false,
          "internalType": "uint256",
          "name": "entryFee",
          "type": "uint256"
        }
      ],
      "name": "Registered",
      "type": "event"
    },
    {
      "anonymous": false,
      "inputs": [
        {
          "indexed": true,
          "internalType": "uint256",
          "name": "id",
          "type": "uint256"
        },
        {
          "indexed": true,
          "internalType": "address",
          "name": "player",
          "type": "address"
        },
        {
          "indexed": false,
          "internalType": "uint256",
          "name": "points",
          "type": "uint256"
        }
      ],
      "name": "ScoreRecorded",
      "type": "event"
    },
    {
      "anonymous": false,
      "inputs": [
        {
          "indexed": true,
          "internalType": "address",
          "name": "token",
          "type": "address"
        },
        {
          "indexed": true,
          "internalType": "address",
          "name": "to",
          "type": "address"
        },
        {
          "indexed": false,
          "internalType": "uint256",
          "name": "amount",
          "type": "uint256"
        }
      ],
      "name": "TokensSwept",
      "type": "event"
    },
    {
      "anonymous": false,
      "inputs": [
        {
          "indexed": true,
          "internalType": "uint256",
          "name": "id",
          "type": "uint256"
        }
      ],
      "name": "TournamentCancelled",
      "type": "event"
    },
    {
      "anonymous": false,
      "inputs": [
        {
          "indexed": true,
          "internalType": "uint256",
          "name": "id",
          "type": "uint256"
        },
        {
          "indexed": false,
          "internalType": "uint256",
          "name": "entryFee",
          "type": "uint256"
        },
        {
          "indexed": false,
          "internalType": "uint256",
          "name": "registrationEndTime",
          "type": "uint256"
        },
        {
          "indexed": false,
          "internalType": "uint256",
          "name": "startTime",
          "type": "uint256"
        },
        {
          "indexed": false,
          "internalType": "uint256",
          "name": "endTime",
          "type": "uint256"
        },
        {
          "indexed": false,
          "internalType": "uint256",
          "name": "questionsPerSession",
          "type": "uint256"
        },
        {
          "indexed": false,
          "internalType": "uint256",
          "name": "timePerQuestion",
          "type": "uint256"
        }
      ],
      "name": "TournamentCreated",
      "type": "event"
    },
    {
      "anonymous": false,
      "inputs": [
        {
          "indexed": true,
          "internalType": "uint256",
          "name": "id",
          "type": "uint256"
        },
        {
          "indexed": false,
          "internalType": "address[]",
          "name": "winners",
          "type": "address[]"
        },
        {
          "indexed": false,
          "internalType": "uint256[]",
          "name": "rewards",
          "type": "uint256[]"
        },
        {
          "indexed": false,
          "internalType": "uint256",
          "name": "houseFee",
          "type": "uint256"
        }
      ],
      "name": "TournamentSettled",
      "type": "event"
    },
    {
      "anonymous": false,
      "inputs": [
        {
          "indexed": false,
          "internalType": "address",
          "name": "account",
          "type": "address"
        }
      ],
      "name": "Unpaused",
      "type": "event"
    },
    {
      "inputs": [],
      "name": "HOUSE_FEE_PERCENT",
      "outputs": [
        {
          "internalType": "uint256",
          "name": "",
          "type": "uint256"
        }
      ],
      "stateMutability": "view",
      "type": "function"
    },
    {
      "inputs": [],
      "name": "MAX_PASS_PURCHASE",
      "outputs": [
        {
          "internalType": "uint256",
          "name": "",
          "type": "uint256"
        }
      ],
      "stateMutability": "view",
      "type": "function"
    },
    {
      "inputs": [],
      "name": "MAX_QUESTIONS_PER_SESSION",
      "outputs": [
        {
          "internalType": "uint256",
          "name": "",
          "type": "uint256"
        }
      ],
      "stateMutability": "view",
      "type": "function"
    },
    {
      "inputs": [],
      "name": "MAX_TIME_PER_QUESTION",
      "outputs": [
        {
          "internalType": "uint256",
          "name": "",
          "type": "uint256"
        }
      ],
      "stateMutability": "view",
      "type": "function"
    },
    {
      "inputs": [],
      "name": "MIN_ENTRY_FEE",
      "outputs": [
        {
          "internalType": "uint256",
          "name": "",
          "type": "uint256"
        }
      ],
      "stateMutability": "view",
      "type": "function"
    },
    {
      "inputs": [],
      "name": "MIN_PLAYERS",
      "outputs": [
        {
          "internalType": "uint256",
          "name": "",
          "type": "uint256"
        }
      ],
      "stateMutability": "view",
      "type": "function"
    },
    {
      "inputs": [],
      "name": "MIN_PLAY_PERIOD",
      "outputs": [
        {
          "internalType": "uint256",
          "name": "",
          "type": "uint256"
        }
      ],
      "stateMutability": "view",
      "type": "function"
    },
    {
      "inputs": [],
      "name": "MIN_REGISTRATION_PERIOD",
      "outputs": [
        {
          "internalType": "uint256",
          "name": "",
          "type": "uint256"
        }
      ],
      "stateMutability": "view",
      "type": "function"
    },
    {
      "inputs": [],
      "name": "PASS_COST_PERCENT",
      "outputs": [
        {
          "internalType": "uint256",
          "name": "",
          "type": "uint256"
        }
      ],
      "stateMutability": "view",
      "type": "function"
    },
    {
      "inputs": [
        {
          "internalType": "uint256",
          "name": "id",
          "type": "uint256"
        },
        {
          "internalType": "uint256",
          "name": "amount",
          "type": "uint256"
        }
      ],
      "name": "buyPasses",
      "outputs": [],
      "stateMutability": "nonpayable",
      "type": "function"
    },
    {
      "inputs": [],
      "name": "cUSD",
      "outputs": [
        {
          "internalType": "contract IERC20",
          "name": "",
          "type": "address"
        }
      ],
      "stateMutability": "view",
      "type": "function"
    },
    {
      "inputs": [
        {
          "internalType": "uint256",
          "name": "id",
          "type": "uint256"
        }
      ],
      "name": "cancelTournament",
      "outputs": [],
      "stateMutability": "nonpayable",
      "type": "function"
    },
    {
      "inputs": [
        {
          "internalType": "uint256",
          "name": "entryFee",
          "type": "uint256"
        },
        {
          "internalType": "uint256",
          "name": "registrationPeriod",
          "type": "uint256"
        },
        {
          "internalType": "uint256",
          "name": "playPeriod",
          "type": "uint256"
        },
        {
          "internalType": "uint256",
          "name": "questionsPerSession",
          "type": "uint256"
        },
        {
          "internalType": "uint256",
          "name": "timePerQuestion",
          "type": "uint256"
        }
      ],
      "name": "createTournament",
      "outputs": [],
      "stateMutability": "nonpayable",
      "type": "function"
    },
    {
      "inputs": [
        {
          "internalType": "uint256",
          "name": "id",
          "type": "uint256"
        },
        {
          "internalType": "address",
          "name": "player",
          "type": "address"
        }
      ],
      "name": "getPlayerInfo",
      "outputs": [
        {
          "components": [
            {
              "internalType": "bool",
              "name": "registered",
              "type": "bool"
            },
            {
              "internalType": "uint256",
              "name": "totalPoints",
              "type": "uint256"
            }
          ],
          "internalType": "struct TournamentQuizV2.Player",
          "name": "",
          "type": "tuple"
        }
      ],
      "stateMutability": "view",
      "type": "function"
    },
    {
      "inputs": [
        {
          "internalType": "uint256",
          "name": "id",
          "type": "uint256"
        },
        {
          "internalType": "address",
          "name": "player",
          "type": "address"
        }
      ],
      "name": "getPlayerPasses",
      "outputs": [
        {
          "internalType": "uint256",
          "name": "",
          "type": "uint256"
        }
      ],
      "stateMutability": "view",
      "type": "function"
    },
    {
      "inputs": [
        {
          "internalType": "uint256",
          "name": "id",
          "type": "uint256"
        }
      ],
      "name": "getPlayers",
      "outputs": [
        {
          "internalType": "address[]",
          "name": "",
          "type": "address[]"
        }
      ],
      "stateMutability": "view",
      "type": "function"
    },
    {
      "inputs": [
        {
          "internalType": "uint256",
          "name": "id",
          "type": "uint256"
        },
        {
          "internalType": "uint256",
          "name": "count",
          "type": "uint256"
        }
      ],
      "name": "getTopPlayers",
      "outputs": [
        {
          "internalType": "address[]",
          "name": "",
          "type": "address[]"
        },
        {
          "internalType": "uint256[]",
          "name": "",
          "type": "uint256[]"
        }
      ],
      "stateMutability": "view",
      "type": "function"
    },
    {
      "inputs": [
        {
          "internalType": "uint256",
          "name": "id",
          "type": "uint256"
        }
      ],
      "name": "getTournamentInfo",
      "outputs": [
        {
          "internalType": "uint256",
          "name": "entryFee",
          "type": "uint256"
        },
        {
          "internalType": "uint256",
          "name": "registrationEndTime",
          "type": "uint256"
        },
        {
          "internalType": "uint256",
          "name": "startTime",
          "type": "uint256"
        },
        {
          "internalType": "uint256",
          "name": "endTime",
          "type": "uint256"
        },
        {
          "internalType": "uint256",
          "name": "questionsPerSession",
          "type": "uint256"
        },
        {
          "internalType": "uint256",
          "name": "timePerQuestion",
          "type": "uint256"
        },
        {
          "internalType": "bool",
          "name": "settled",
          "type": "bool"
        },
        {
          "internalType": "uint256",
          "name": "totalPool",
          "type": "uint256"
        },
        {
          "internalType": "uint256",
          "name": "playerCount",
          "type": "uint256"
        }
      ],
      "stateMutability": "view",
      "type": "function"
    },
    {
      "inputs": [],
      "name": "owner",
      "outputs": [
        {
          "internalType": "address",
          "name": "",
          "type": "address"
        }
      ],
      "stateMutability": "view",
      "type": "function"
    },
    {
      "inputs": [],
      "name": "pause",
      "outputs": [],
      "stateMutability": "nonpayable",
      "type": "function"
    },
    {
      "inputs": [],
      "name": "paused",
      "outputs": [
        {
          "internalType": "bool",
          "name": "",
          "type": "bool"
        }
      ],
      "stateMutability": "view",
      "type": "function"
    },
    {
      "inputs": [
        {
          "internalType": "uint256",
          "name": "",
          "type": "uint256"
        },
        {
          "internalType": "address",
          "name": "",
          "type": "address"
        }
      ],
      "name": "playerData",
      "outputs": [
        {
          "internalType": "bool",
          "name": "registered",
          "type": "bool"
        },
        {
          "internalType": "uint256",
          "name": "totalPoints",
          "type": "uint256"
        }
      ],
      "stateMutability": "view",
      "type": "function"
    },
    {
      "inputs": [
        {
          "internalType": "uint256",
          "name": "",
          "type": "uint256"
        },
        {
          "internalType": "address",
          "name": "",
          "type": "address"
        }
      ],
      "name": "playerPasses",
      "outputs": [
        {
          "internalType": "uint256",
          "name": "",
          "type": "uint256"
        }
      ],
      "stateMutability": "view",
      "type": "function"
    },
    {
      "inputs": [
        {
          "internalType": "uint256",
          "name": "id",
          "type": "uint256"
        },
        {
          "internalType": "address",
          "name": "player",
          "type": "address"
        },
        {
          "internalType": "uint256",
          "name": "points",
          "type": "uint256"
        }
      ],
      "name": "recordScore",
      "outputs": [],
      "stateMutability": "nonpayable",
      "type": "function"
    },
    {
      "inputs": [
        {
          "internalType": "uint256",
          "name": "id",
          "type": "uint256"
        }
      ],
      "name": "register",
      "outputs": [],
      "stateMutability": "nonpayable",
      "type": "function"
    },
    {
      "inputs": [
        {
          "internalType": "uint256",
          "name": "id",
          "type": "uint256"
        }
      ],
      "name": "settleTournament",
      "outputs": [],
      "stateMutability": "nonpayable",
      "type": "function"
    },
    {
      "inputs": [
        {
          "internalType": "address",
          "name": "token",
          "type": "address"
        },
        {
          "internalType": "address",
          "name": "to",
          "type": "address"
        },
        {
          "internalType": "uint256",
          "name": "amount",
          "type": "uint256"
        }
      ],
      "name": "sweepToken",
      "outputs": [],
      "stateMutability": "nonpayable",
      "type": "function"
    },
    {
      "inputs": [],
      "name": "totalFunds",
      "outputs": [
        {
          "internalType": "uint256",
          "name": "",
          "type": "uint256"
        }
      ],
      "stateMutability": "view",
      "type": "function"
    },
    {
      "inputs": [],
      "name": "tournamentCounter",
      "outputs": [
        {
          "internalType": "uint256",
          "name": "",
          "type": "uint256"
        }
      ],
      "stateMutability": "view",
      "type": "function"
    },
    {
      "inputs": [
        {
          "internalType": "uint256",
          "name": "",
          "type": "uint256"
        }
      ],
      "name": "tournaments",
      "outputs": [
        {
          "internalType": "uint256",
          "name": "id",
          "type": "uint256"
        },
        {
          "internalType": "uint256",
          "name": "entryFee",
          "type": "uint256"
        },
        {
          "internalType": "uint256",
          "name": "registrationEndTime",
          "type": "uint256"
        },
        {
          "internalType": "uint256",
          "name": "startTime",
          "type": "uint256"
        },
        {
          "internalType": "uint256",
          "name": "endTime",
          "type": "uint256"
        },
        {
          "internalType": "uint256",
          "name": "questionsPerSession",
          "type": "uint256"
        },
        {
          "internalType": "uint256",
          "name": "timePerQuestion",
          "type": "uint256"
        },
        {
          "internalType": "bool",
          "name": "settled",
          "type": "bool"
        },
        {
          "internalType": "uint256",
          "name": "totalPool",
          "type": "uint256"
        }
      ],
      "stateMutability": "view",
      "type": "function"
    },
    {
      "inputs": [
        {
          "internalType": "address",
          "name": "newOwner",
          "type": "address"
        }
      ],
      "name": "transferOwnership",
      "outputs": [],
      "stateMutability": "nonpayable",
      "type": "function"
    },
    {
      "inputs": [],
      "name": "unpause",
      "outputs": [],
      "stateMutability": "nonpayable",
      "type": "function"
    }
  ],
  "bytecode": "0x60a06040523480156200001157600080fd5b5060405162002fd638038062002fd68339810160408190526200003491620000ed565b60016000819055805460ff191690556001600160a01b038116620000925760405162461bcd60e51b815260206004820152601160248201527063555344207a65726f206164647265737360781b604482015260640160405180910390fd5b6001600160a01b03811660805260018054610100600160a81b031916336101008102919091179091556040516000907f8be0079c531659141344cd1fd0a4f28419497f9722a3daafe3b4186f6b6457e0908290a3506200011f565b6000602082840312156200010057600080fd5b81516001600160a01b03811681146200011857600080fd5b9392505050565b608051612e5c6200017a6000396000818161023a01528181610f16015281816113db015281816115580152818161178c01528181611a5e01528181611f2801528181611fb90152818161224f01526126300152612e5c6000f3fe608060405234801561001057600080fd5b50600436106101f05760003560e01c806373ed5c1c1161010f578063ae1f4168116100a2578063e0a64e0f11610071578063e0a64e0f1461037f578063e46a93811461055a578063f207564e1461056d578063f2fde38b1461058057600080fd5b8063ae1f4168146104c3578063bf28adec146104d6578063c00b69fe1461029c578063cac766d21461050157600080fd5b806385f07bbe116100de57806385f07bbe1461044c5780638da5cb5b14610454578063968ed6001461046c5780639c4206c31461047457600080fd5b806373ed5c1c146103875780637503e1b71461039057806381883759146104365780638456cb591461044457600080fd5b8063460e2049116101875780635e660315116101565780635e6603151461032357806364aff9ec146103365780636857e244146103495780636d84c9591461037f57600080fd5b8063460e2049146102dd57806352bb6cde146102fd5780635537be7f146103055780635c975abb1461030d57600080fd5b806332432233116101c357806332432233146102895780633aa8c6891461029c5780633ccd10e9146102a55780633f4ba83a146102d557600080fd5b806301966646146101f557806310aa68fc1461021f5780631fccf672146102355780632f8cbdb714610274575b600080fd5b610208610203366004612a36565b610593565b604051610216929190612ace565b60405180910390f35b610227603281565b604051908152602001610216565b61025c7f000000000000000000000000000000000000000000000000000000000000000081565b6040516001600160a01b039091168152602001610216565b610287610282366004612afc565b610a4c565b005b610287610297366004612b37565b610dca565b610227610e1081565b6102b86102b3366004612b6c565b610fee565b604080518251151581526020928301519281019290925201610216565b610287611071565b6102f06102eb366004612b37565b6110aa565b6040516102169190612b98565b610227603c81565b610227601481565b60015460ff166040519015158152602001610216565b610287610331366004612bb2565b611145565b610287610344366004612be7565b6113a2565b610227610357366004612b6c565b60009182526005602090815260408084206001600160a01b0393909316845291905290205490565b610227606481565b61022760025481565b6103f061039e366004612b37565b6003602081905260009182526040909120805460018201546002830154938301546004840154600585015460068601546007870154600990970154959794969495939492939192909160ff9091169089565b60408051998a5260208a0198909852968801959095526060870193909352608086019190915260a085015260c0840152151560e083015261010082015261012001610216565b610227662386f26fc1000081565b610287611509565b610227600181565b60015461025c9061010090046001600160a01b031681565b610227611540565b6104ac610482366004612b6c565b60046020908152600092835260408084209091529082529020805460019091015460ff9091169082565b604080519215158352602083019190915201610216565b6102876104d1366004612a36565b6115d0565b6102276104e4366004612b6c565b600560209081526000928352604080842090915290825290205481565b61051461050f366004612b37565b61183a565b60408051998a5260208a0198909852968801959095526060870193909352608086019190915260a0850152151560c084015260e083015261010082015261012001610216565b610287610568366004612b37565b6118d3565b61028761057b366004612b37565b612157565b61028761058e366004612c13565b612317565b60008281526003602052604090205460609081906105cc5760405162461bcd60e51b81526004016105c390612c2e565b60405180910390fd5b600083116106105760405162461bcd60e51b81526020600482015260116024820152700436f756e74206d757374206265203e203607c1b60448201526064016105c3565b600084815260036020908152604080832060088101805483518186028101860190945280845291949390919083018282801561067557602002820191906000526020600020905b81546001600160a01b03168152600190910190602001808311610657575b505050505090506000815167ffffffffffffffff81111561069857610698612c65565b6040519080825280602002602001820160405280156106c1578160200160208202803683370190505b50905060005b8251811015610748576004600089815260200190815260200160002060008483815181106106f7576106f7612c7b565b60200260200101516001600160a01b03166001600160a01b031681526020019081526020016000206001015482828151811061073557610735612c7b565b60209081029190910101526001016106c7565b50600082518711610759578661075c565b82515b905060005b6001845161076f9190612ca7565b8110801561077c57508181105b156109175760005b60018286516107939190612ca7565b61079d9190612ca7565b81101561090457836107b0826001612cba565b815181106107c0576107c0612c7b565b60200260200101518482815181106107da576107da612c7b565b602002602001015110156108fc57836107f4826001612cba565b8151811061080457610804612c7b565b602002602001015184828151811061081e5761081e612c7b565b602002602001015185838151811061083857610838612c7b565b602002602001018684600161084d9190612cba565b8151811061085d5761085d612c7b565b60209081029190910101919091525284610878826001612cba565b8151811061088857610888612c7b565b60200260200101518582815181106108a2576108a2612c7b565b60200260200101518683815181106108bc576108bc612c7b565b60200260200101878460016108d19190612cba565b815181106108e1576108e1612c7b565b6001600160a01b039384166020918202929092010152911690525b600101610784565b508061090f81612ccd565b915050610761565b5060008167ffffffffffffffff81111561093357610933612c65565b60405190808252806020026020018201604052801561095c578160200160208202803683370190505b50905060008267ffffffffffffffff81111561097a5761097a612c65565b6040519080825280602002602001820160405280156109a3578160200160208202803683370190505b50905060005b83811015610a3c578581815181106109c3576109c3612c7b565b60200260200101518382815181106109dd576109dd612c7b565b60200260200101906001600160a01b031690816001600160a01b031681525050848181518110610a0f57610a0f612c7b565b6020026020010151828281518110610a2957610a29612c7b565b60209081029190910101526001016109a9565b5090999098509650505050505050565b60015461010090046001600160a01b03163314610a7b5760405162461bcd60e51b81526004016105c390612ce6565b610a836123ef565b662386f26fc10000851015610ace5760405162461bcd60e51b8152602060048201526011602482015270456e7472792066656520746f6f206c6f7760781b60448201526064016105c3565b610e10841015610b205760405162461bcd60e51b815260206004820152601d60248201527f526567697374726174696f6e20706572696f6420746f6f2073686f727400000060448201526064016105c3565b610e10831015610b6a5760405162461bcd60e51b8152602060048201526015602482015274141b185e481c195c9a5bd9081d1bdbc81cda1bdc9d605a1b60448201526064016105c3565b600082118015610b7b575060328211155b610bc05760405162461bcd60e51b8152602060048201526016602482015275125b9d985b1a59081c5d595cdd1a5bdb8818dbdd5b9d60521b60448201526064016105c3565b600081118015610bd15750603c8111155b610c155760405162461bcd60e51b8152602060048201526015602482015274496e76616c6964207175657374696f6e2074696d6560581b60448201526064016105c3565b60028054906000610c2583612ccd565b90915550506002546000610c398642612cba565b9050806000610c488783612cba565b90506040518061014001604052808581526020018a8152602001848152602001838152602001828152602001878152602001868152602001600015158152602001600067ffffffffffffffff811115610ca357610ca3612c65565b604051908082528060200260200182016040528015610ccc578160200160208202803683370190505b508152600060209182018190528681526003808352604091829020845181558484015160018201559184015160028301556060840151908201556080830151600482015560a0830151600582015560c0830151600682015560e083015160078201805460ff191691151591909117905561010083015180519192610d589260088501929091019061299e565b506101209190910151600990910155604080518a815260208101859052908101839052606081018290526080810187905260a0810186905284907f3162f884db23cd61b31472ef12e867c34a384e0fda208422a7e7ccd1170723f59060c00160405180910390a2505050505050505050565b60015461010090046001600160a01b03163314610df95760405162461bcd60e51b81526004016105c390612ce6565b610e01612435565b610e096123ef565b60008181526003602052604090208054610e355760405162461bcd60e51b81526004016105c390612c2e565b80600301544210610e7d5760405162461bcd60e51b8152602060048201526012602482015271151bdd5c9b985b595b9d081cdd185c9d195960721b60448201526064016105c3565b600781015460ff1615610ec45760405162461bcd60e51b815260206004820152600f60248201526e105b1c9958591e481cd95d1d1b1959608a1b60448201526064016105c3565b60078101805460ff19166001179055600881015460005b81811015610fad57610f3f836008018281548110610efb57610efb612c7b565b60009182526020909120015460018501546001600160a01b037f0000000000000000000000000000000000000000000000000000000000000000811692169061248e565b826008018181548110610f5457610f54612c7b565b6000918252602091829020015460018501546040519081526001600160a01b039091169186917f7ca5472b7ea78c2c0141c5a12ee6d170cf4ce8ed06be3d22c8252ddfc7a6a2c4910160405180910390a3600101610edb565b5060006009830181905560405184917ffa61ec8d7e5a58ceba17772b10ba0c6caa65b40b200302be35f00efc264c789591a25050610feb6001600055565b50565b604080518082019091526000808252602082015260008381526003602052604090205461102d5760405162461bcd60e51b81526004016105c390612c2e565b5060008281526004602090815260408083206001600160a01b03851684528252918290208251808401909352805460ff161515835260010154908201525b92915050565b60015461010090046001600160a01b031633146110a05760405162461bcd60e51b81526004016105c390612ce6565b6110a86124f1565b565b6000818152600360205260409020546060906110d85760405162461bcd60e51b81526004016105c390612c2e565b6000828152600360209081526040918290206008018054835181840281018401909452808452909183018282801561113957602002820191906000526020600020905b81546001600160a01b0316815260019091019060200180831161111b575b50505050509050919050565b60015461010090046001600160a01b031633146111745760405162461bcd60e51b81526004016105c390612ce6565b61117c6123ef565b600083815260036020526040902080546111a85760405162461bcd60e51b81526004016105c390612c2e565b806003015442101580156111c0575080600401544211155b6112045760405162461bcd60e51b8152602060048201526015602482015274546f75726e616d656e74206e6f742061637469766560581b60448201526064016105c3565b60008481526004602090815260408083206001600160a01b03871684529091529020805460ff166112685760405162461bcd60e51b815260206004820152600e60248201526d139bdd081c9959da5cdd195c995960921b60448201526064016105c3565b60008581526005602090815260408083206001600160a01b03881684529091529020546112c35760405162461bcd60e51b81526020600482015260096024820152684e6f2070617373657360b81b60448201526064016105c3565b81600501548311156113085760405162461bcd60e51b815260206004820152600e60248201526d496e76616c696420706f696e747360901b60448201526064016105c3565b60008581526005602090815260408083206001600160a01b0388168452909152812080546001929061133b908490612ca7565b92505081905550828160010160008282546113569190612cba565b90915550506040518381526001600160a01b0385169086907f65b9226ef0cd59cc07d9833e9ffb6f2ecb6b10e623ba9ce7a568a62693aa6d3a9060200160405180910390a35050505050565b60015461010090046001600160a01b031633146113d15760405162461bcd60e51b81526004016105c390612ce6565b6113d9612435565b7f00000000000000000000000000000000000000000000000000000000000000006001600160a01b0316836001600160a01b03160361145a5760405162461bcd60e51b815260206004820152601c60248201527f55736520736574746c656d656e7420666c6f7720666f7220635553440000000060448201526064016105c3565b6001600160a01b0382166114995760405162461bcd60e51b81526004016105c3906020808252600490820152630746f3d360e41b604082015260600190565b6114ad6001600160a01b038416838361248e565b816001600160a01b0316836001600160a01b03167fd092d7fceb5ea5a962639fcc27a7bb315e7637e699e3b108cd570c38c7584300836040516114f291815260200190565b60405180910390a36115046001600055565b505050565b60015461010090046001600160a01b031633146115385760405162461bcd60e51b81526004016105c390612ce6565b6110a8612543565b6040516370a0823160e01b81523060048201526000907f00000000000000000000000000000000000000000000000000000000000000006001600160a01b0316906370a0823190602401602060405180830381865afa1580156115a7573d6000803e3d6000fd5b505050506040513d601f19601f820116820180604052508101906115cb9190612d09565b905090565b6115d8612435565b6115e06123ef565b6000811180156115f1575060648111155b6116335760405162461bcd60e51b8152602060048201526013602482015272125b9d985b1a59081c185cdcc8185b5bdd5b9d606a1b60448201526064016105c3565b6000828152600360205260409020805461165f5760405162461bcd60e51b81526004016105c390612c2e565b80600301544210158015611677575080600401544211155b6116bb5760405162461bcd60e51b8152602060048201526015602482015274546f75726e616d656e74206e6f742061637469766560581b60448201526064016105c3565b60008381526004602090815260408083203384529091529020805460ff166117165760405162461bcd60e51b815260206004820152600e60248201526d139bdd081c9959da5cdd195c995960921b60448201526064016105c3565b6000606483600101546117299190612d22565b905060006117378583612d44565b90506000811161177b5760405162461bcd60e51b815260206004820152600f60248201526e21b7b9ba1031b0b6319032b93937b960891b60448201526064016105c3565b6001546117bd906001600160a01b037f00000000000000000000000000000000000000000000000000000000000000008116913391610100909104168461257e565b6000868152600560209081526040808320338452909152812080548792906117e6908490612cba565b90915550506040805186815260208101839052339188917f278bd90f4893eb8fe36da47437ce86fada8fd9cef2401c1e86e9dfca9af5cd4b910160405180910390a3505050506118366001600055565b5050565b60008181526003602052604081208054829182918291829182918291829182916118765760405162461bcd60e51b81526004016105c390612c2e565b8060010154816002015482600301548360040154846005015485600601548660070160009054906101000a900460ff1687600901548860080180549050995099509950995099509950995099509950509193959799909294969850565b60015461010090046001600160a01b031633146119025760405162461bcd60e51b81526004016105c390612ce6565b61190a612435565b6119126123ef565b6000818152600360205260409020805461193e5760405162461bcd60e51b81526004016105c390612c2e565b806004015442116119885760405162461bcd60e51b8152602060048201526014602482015273151bdd5c9b985b595b9d081b9bdd08195b99195960621b60448201526064016105c3565b600781015460ff16156119cf5760405162461bcd60e51b815260206004820152600f60248201526e105b1c9958591e481cd95d1d1b1959608a1b60448201526064016105c3565b600881015460021115611a0b5760088101546000036119fb57600701805460ff1916600117905561214d565b611a0582826125bc565b5061214d565b600981015480611a475760405162461bcd60e51b8152602060048201526007602482015266139bc81c1bdbdb60ca1b60448201526064016105c3565b6040516370a0823160e01b815230600482015281907f00000000000000000000000000000000000000000000000000000000000000006001600160a01b0316906370a0823190602401602060405180830381865afa158015611aad573d6000803e3d6000fd5b505050506040513d601f19601f82011682018060405250810190611ad19190612d09565b1015611b1f5760405162461bcd60e51b815260206004820152601d60248201527f496e73756666696369656e7420636f6e74726163742062616c616e636500000060448201526064016105c3565b611b27612a03565b611b2f612a03565b60005b6008850154811015611c51576000856008018281548110611b5557611b55612c7b565b6000918252602080832091909101548983526004825260408084206001600160a01b0390921680855291909252912060010154845191925090811115611be8576020808501805160408088019190915291870180516001600160a01b0390811693890193909352865190915286519091169052808452818560005b6001600160a01b039092166020929092020152611c47565b6020840151811115611c245760208085018051604080880191909152918701516001600160a01b03169187019190915281905281856001611bd0565b6040840151811115611c475760408085018290526001600160a01b038316908601525b5050600101611b32565b506000805b6003811015611c9c576000848260038110611c7357611c73612c7b565b60200201516001600160a01b031614611c945781611c9081612ccd565b9250505b600101611c56565b5080600003611cb957611caf86866125bc565b505050505061214d565b60078501805460ff1916600117905560006064611cd7601487612d44565b611ce19190612d22565b90506000611cef8287612ca7565b9050611cf9612a03565b83600103611d1057818160005b6020020152611f08565b83600203611dc2576020850151855103611d96576064611d31836028612d44565b611d3b9190612d22565b81526064611d4a836028612d44565b611d549190612d22565b60208201819052815160009190611d6b9085612ca7565b611d759190612ca7565b90508082600160200201818151611d8c9190612cba565b905250611f089050565b6064611da383603c612d44565b611dad9190612d22565b808252611dba9083612ca7565b816001611d06565b60208501518551148015611ddd575060408501516020860151145b15611e1f57611ded600383612d22565b8152611dfa600383612d22565b602082018190528151611e0d9084612ca7565b611e179190612ca7565b816002611d06565b60208501518551148015611e3a575060408501516020860151115b15611e6f576064611e4c836028612d44565b611e569190612d22565b81526064611e65836028612d44565b611dfa9190612d22565b60208501518551118015611e8a575060408501516020860151145b15611eb5576064611e9c836032612d44565b611ea69190612d22565b81526064611e65836019612d44565b6064611ec2836032612d44565b611ecc9190612d22565b81526064611edb83601e612d44565b611ee59190612d22565b602082018190528151611ef89084612ca7565b611f029190612ca7565b60408201525b805115611f4f578551611f4f908260005b60200201516001600160a01b037f000000000000000000000000000000000000000000000000000000000000000016919061248e565b60028410158015611f635750602081015115155b15611f79576020860151611f7990826001611f19565b836003148015611f8c5750604081015115155b15611fa2576040860151611fa290826002611f19565b8215611fe757600154611fe7906001600160a01b037f00000000000000000000000000000000000000000000000000000000000000008116916101009004168561248e565b60008467ffffffffffffffff81111561200257612002612c65565b60405190808252806020026020018201604052801561202b578160200160208202803683370190505b50905060008567ffffffffffffffff81111561204957612049612c65565b604051908082528060200260200182016040528015612072578160200160208202803683370190505b50905060005b868110156121055788816003811061209257612092612c7b565b60200201518382815181106120a9576120a9612c7b565b60200260200101906001600160a01b031690816001600160a01b0316815250508381600381106120db576120db612c7b565b60200201518282815181106120f2576120f2612c7b565b6020908102919091010152600101612078565b508a7f1b4a7ff242e668974e51793bde9eb3367c9b96b940669ff6539e70cb1b155b9083838860405161213a93929190612d5b565b60405180910390a2505050505050505050505b610feb6001600055565b61215f612435565b6121676123ef565b600081815260036020526040902080546121935760405162461bcd60e51b81526004016105c390612c2e565b806002015442106121dc5760405162461bcd60e51b8152602060048201526013602482015272149959da5cdd1c985d1a5bdb8818db1bdcd959606a1b60448201526064016105c3565b60008281526004602090815260408083203384529091529020805460ff161561223c5760405162461bcd60e51b8152602060048201526012602482015271105b1c9958591e481c9959da5cdd195c995960721b60448201526064016105c3565b6001820154612279906001600160a01b037f000000000000000000000000000000000000000000000000000000000000000016903390309061257e565b81600101548260090160008282546122919190612cba565b9091555050805460ff1916600190811782556008830180548083018255600091825260209091200180546001600160a01b031916339081179091559083015460405185917f39dd062cc095bf933d83338d8e4591b7eb119264d876f173cacb1cfdf2c9737f9161230391815260200190565b60405180910390a35050610feb6001600055565b60015461010090046001600160a01b031633146123465760405162461bcd60e51b81526004016105c390612ce6565b6001600160a01b0381166123955760405162461bcd60e51b81526020600482015260166024820152754e6577206f776e6572207a65726f206164647265737360501b60448201526064016105c3565b600180546001600160a01b03838116610100818102610100600160a81b031985161790945560405193909204169182907f8be0079c531659141344cd1fd0a4f28419497f9722a3daafe3b4186f6b6457e090600090a35050565b60015460ff16156110a85760405162461bcd60e51b815260206004820152601060248201526f14185d5cd8589b194e881c185d5cd95960821b60448201526064016105c3565b6002600054036124875760405162461bcd60e51b815260206004820152601f60248201527f5265656e7472616e637947756172643a207265656e7472616e742063616c6c0060448201526064016105c3565b6002600055565b6040516001600160a01b03831660248201526044810182905261150490849063a9059cbb60e01b906064015b60408051601f198184030181529190526020810180516001600160e01b03166001600160e01b0319909316929092179091526126f0565b6124f96127c5565b6001805460ff191690557f5db9ee0a495bf2e6ff9c91a7834c1ba4fdd244a5e8aa4e537bd38aeae4b073aa335b6040516001600160a01b03909116815260200160405180910390a1565b61254b6123ef565b6001805460ff1916811790557f62e78cea01bee320cd4e420270b5ea74000d11b0c9f74754ebdbfc544b05a25833612526565b6040516001600160a01b03808516602483015283166044820152606481018290526125b69085906323b872dd60e01b906084016124ba565b50505050565b600881015460005b818110156126aa5760008360080182815481106125e3576125e3612c7b565b60009182526020808320909101548783526004825260408084206001600160a01b039092168085529190925291205490915060ff16156126a1576001840154612658906001600160a01b037f00000000000000000000000000000000000000000000000000000000000000001690839061248e565b806001600160a01b0316857f7ca5472b7ea78c2c0141c5a12ee6d170cf4ce8ed06be3d22c8252ddfc7a6a2c4866001015460405161269891815260200190565b60405180910390a35b506001016125c4565b5060078201805460ff1916600117905560006009830181905560405184917ffa61ec8d7e5a58ceba17772b10ba0c6caa65b40b200302be35f00efc264c789591a2505050565b6000612745826040518060400160405280602081526020017f5361666545524332303a206c6f772d6c6576656c2063616c6c206661696c6564815250856001600160a01b031661280e9092919063ffffffff16565b90508051600014806127665750808060200190518101906127669190612d91565b6115045760405162461bcd60e51b815260206004820152602a60248201527f5361666545524332303a204552433230206f7065726174696f6e20646964206e6044820152691bdd081cdd58d8d9595960b21b60648201526084016105c3565b60015460ff166110a85760405162461bcd60e51b815260206004820152601460248201527314185d5cd8589b194e881b9bdd081c185d5cd95960621b60448201526064016105c3565b606061281d8484600085612825565b949350505050565b6060824710156128865760405162461bcd60e51b815260206004820152602660248201527f416464726573733a20696e73756666696369656e742062616c616e636520666f6044820152651c8818d85b1b60d21b60648201526084016105c3565b600080866001600160a01b031685876040516128a29190612dd7565b60006040518083038185875af1925050503d80600081146128df576040519150601f19603f3d011682016040523d82523d6000602084013e6128e4565b606091505b50915091506128f587838387612900565b979650505050505050565b6060831561296f578251600003612968576001600160a01b0385163b6129685760405162461bcd60e51b815260206004820152601d60248201527f416464726573733a2063616c6c20746f206e6f6e2d636f6e747261637400000060448201526064016105c3565b508161281d565b61281d83838151156129845781518083602001fd5b8060405162461bcd60e51b81526004016105c39190612df3565b8280548282559060005260206000209081019282156129f3579160200282015b828111156129f357825182546001600160a01b0319166001600160a01b039091161782556020909201916001909101906129be565b506129ff929150612a21565b5090565b60405180606001604052806003906020820280368337509192915050565b5b808211156129ff5760008155600101612a22565b60008060408385031215612a4957600080fd5b50508035926020909101359150565b60008151808452602080850194506020840160005b83811015612a925781516001600160a01b031687529582019590820190600101612a6d565b509495945050505050565b60008151808452602080850194506020840160005b83811015612a9257815187529582019590820190600101612ab2565b604081526000612ae16040830185612a58565b8281036020840152612af38185612a9d565b95945050505050565b600080600080600060a08688031215612b1457600080fd5b505083359560208501359550604085013594606081013594506080013592509050565b600060208284031215612b4957600080fd5b5035919050565b80356001600160a01b0381168114612b6757600080fd5b919050565b60008060408385031215612b7f57600080fd5b82359150612b8f60208401612b50565b90509250929050565b602081526000612bab6020830184612a58565b9392505050565b600080600060608486031215612bc757600080fd5b83359250612bd760208501612b50565b9150604084013590509250925092565b600080600060608486031215612bfc57600080fd5b612c0584612b50565b9250612bd760208501612b50565b600060208284031215612c2557600080fd5b612bab82612b50565b60208082526019908201527f546f75726e616d656e7420646f6573206e6f7420657869737400000000000000604082015260600190565b634e487b7160e01b600052604160045260246000fd5b634e487b7160e01b600052603260045260246000fd5b634e487b7160e01b600052601160045260246000fd5b8181038181111561106b5761106b612c91565b8082018082111561106b5761106b612c91565b600060018201612cdf57612cdf612c91565b5060010190565b6020808252600990820152682737ba1037bbb732b960b91b604082015260600190565b600060208284031215612d1b57600080fd5b5051919050565b600082612d3f57634e487b7160e01b600052601260045260246000fd5b500490565b808202811582820484141761106b5761106b612c91565b606081526000612d6e6060830186612a58565b8281036020840152612d808186612a9d565b915050826040830152949350505050565b600060208284031215612da357600080fd5b81518015158114612bab57600080fd5b60005b83811015612dce578181015183820152602001612db6565b50506000910152565b60008251612de9818460208701612db3565b9190910192915050565b6020815260008251806020840152612e12816040850160208701612db3565b601f01601f1916919091016040019291505056fea26469706673582212200a42818fd70c2456cbbf200dbdb4e2f4eed50e8b556b54580e37fc97ca86ca0964736f6c63430008180033",
  "linkReferences": {},
  "deployedLinkReferences": {}
}